{
  "contractName": "HelloWorld",
  "abi": [
    {
      "inputs": [],
      "stateMutability": "nonpayable",
      "type": "constructor"
    },
    {
      "anonymous": false,
      "inputs": [
        {
          "indexed": false,
          "internalType": "string",
          "name": "oldName",
          "type": "string"
        },
        {
          "indexed": false,
          "internalType": "string",
          "name": "newName",
          "type": "string"
        }
      ],
      "name": "NameUpdated",
      "type": "event"
    },
    {
      "inputs": [],
      "name": "yourName",
      "outputs": [
        {
          "internalType": "string",
          "name": "",
          "type": "string"
        }
      ],
      "stateMutability": "view",
      "type": "function",
      "constant": true
    },
    {
      "inputs": [],
      "name": "getMessage",
      "outputs": [
        {
          "internalType": "string",
          "name": "",
          "type": "string"
        }
      ],
      "stateMutability": "view",
      "type": "function",
      "constant": true
    },
    {
      "inputs": [
        {
          "internalType": "string",
          "name": "newName",
          "type": "string"
        }
      ],
      "name": "setName",
      "outputs": [],
      "stateMutability": "nonpayable",
      "type": "function"
    }
  ],
  "bytecode": "0x60806040526040518060400160405280600781526020017f556e6b6e6f776e00000000000000000000000000000000000000000000000000815250600090816200004a919062000326565b503480156200005857600080fd5b506040518060400160405280600781526020017f556e6b6e6f776e00000000000000000000000000000000000000000000000000815250600090816200009f919062000326565b506200040d565b600081519050919050565b7f4e487b7100000000000000000000000000000000000000000000000000000000600052604160045260246000fd5b7f4e487b7100000000000000000000000000000000000000000000000000000000600052602260045260246000fd5b600060028204905060018216806200012857607f821691505b6020821081036200013e576200013d620000e0565b5b50919050565b60008190508160005260206000209050919050565b60006020601f8301049050919050565b60008160020a8302905092915050565b600060088302620001ab7fffffffffffffffffffffffffffffffffffffffffffffffffffffffffffffffff8262000169565b620001b7868362000169565b95508019841693508086168417925050509392505050565b6000819050919050565b6000819050919050565b600062000204620001fe620001f884620001cf565b620001d9565b620001cf565b9050919050565b6000819050919050565b6200022083620001e3565b620002386200022f826200020b565b84845462000179565b825550505050565b600090565b6200024f62000240565b6200025c81848462000215565b505050565b5b8181101562000284576200027860008262000245565b60018101905062000262565b5050565b601f821115620002d3576200029d8162000144565b620002a88462000159565b81016020851015620002b8578190505b620002d0620002c78562000159565b83018262000261565b50505b505050565b60008160020a8304905092915050565b6000620002fb60001984600802620002d8565b1980831691505092915050565b6000620003168383620002e8565b9150826002028217905092915050565b6200033182620000a6565b67ffffffffffffffff8111156200034d576200034c620000b1565b5b6200035982546200010f565b6200036682828562000288565b600060209050601f8311600181146200039e576000841562000389578287015190505b62000395858262000308565b86555062000405565b601f198416620003ae8662000144565b60005b82811015620003d857848901518255600182019150602085019450602081019050620003b1565b86831015620003f85784890151620003f4601f891682620002e8565b8355505b6001600288020188555050505b505050505050565b6108e7806200041d6000396000f3fe608060405234801561001057600080fd5b506004361061005e576000357c010000000000000000000000000000000000000000000000000000000090048063c47f002714610063578063ce6d41de1461007f578063d97d66301461009d575b600080fd5b61007d600480360381019061007891906103a6565b6100bb565b005b610087610196565b604051610094919061046e565b60405180910390f35b6100a56101be565b6040516100b2919061046e565b60405180910390f35b60008080546100c9906104bf565b80601f01602080910402602001604051908101604052809291908181526020018280546100f5906104bf565b80156101425780601f1061011757610100808354040283529160200191610142565b820191906000526020600020905b81548152906001019060200180831161012557829003601f168201915b50505050509050816000908161015891906106ac565b507ff19e969be7affb98a1d812094e0f24ecca36f1eabd6dd592c97020d47c64a00e818360405161018a92919061077e565b60405180910390a15050565b606060006040516020016101aa919061088f565b604051602081830303815290604052905090565b600080546101cb906104bf565b80601f01602080910402602001604051908101604052809291908181526020018280546101f7906104bf565b80156102445780601f1061021957610100808354040283529160200191610244565b820191906000526020600020905b81548152906001019060200180831161022757829003601f168201915b505050505081565b6000604051905090565b600080fd5b600080fd5b600080fd5b600080fd5b6000601f19601f8301169050919050565b7f4e487b7100000000000000000000000000000000000000000000000000000000600052604160045260246000fd5b6102b38261026a565b810181811067ffffffffffffffff821117156102d2576102d161027b565b5b80604052505050565b60006102e561024c565b90506102f182826102aa565b919050565b600067ffffffffffffffff8211156103115761031061027b565b5b61031a8261026a565b9050602081019050919050565b82818337600083830152505050565b6000610349610344846102f6565b6102db565b90508281526020810184848401111561036557610364610265565b5b610370848285610327565b509392505050565b600082601f83011261038d5761038c610260565b5b813561039d848260208601610336565b91505092915050565b6000602082840312156103bc576103bb610256565b5b600082013567ffffffffffffffff8111156103da576103d961025b565b5b6103e684828501610378565b91505092915050565b600081519050919050565b600082825260208201905092915050565b60005b8381101561042957808201518184015260208101905061040e565b60008484015250505050565b6000610440826103ef565b61044a81856103fa565b935061045a81856020860161040b565b6104638161026a565b840191505092915050565b600060208201905081810360008301526104888184610435565b905092915050565b7f4e487b7100000000000000000000000000000000000000000000000000000000600052602260045260246000fd5b600060028204905060018216806104d757607f821691505b6020821081036104ea576104e9610490565b5b50919050565b60008190508160005260206000209050919050565b60006020601f8301049050919050565b60008160020a8302905092915050565b6000600883026105557fffffffffffffffffffffffffffffffffffffffffffffffffffffffffffffffff82610515565b61055f8683610515565b95508019841693508086168417925050509392505050565b6000819050919050565b6000819050919050565b60006105a66105a161059c84610577565b610581565b610577565b9050919050565b6000819050919050565b6105c08361058b565b6105d46105cc826105ad565b848454610525565b825550505050565b600090565b6105e96105dc565b6105f48184846105b7565b505050565b5b818110156106185761060d6000826105e1565b6001810190506105fa565b5050565b601f82111561065d5761062e816104f0565b61063784610505565b81016020851015610646578190505b61065a61065285610505565b8301826105f9565b50505b505050565b60008160020a8304905092915050565b600061068360001984600802610662565b1980831691505092915050565b600061069c8383610672565b9150826002028217905092915050565b6106b5826103ef565b67ffffffffffffffff8111156106ce576106cd61027b565b5b6106d882546104bf565b6106e382828561061c565b600060209050601f8311600181146107165760008415610704578287015190505b61070e8582610690565b865550610776565b601f198416610724866104f0565b60005b8281101561074c57848901518255600182019150602085019450602081019050610727565b868310156107695784890151610765601f891682610672565b8355505b6001600288020188555050505b505050505050565b600060408201905081810360008301526107988185610435565b905081810360208301526107ac8184610435565b90509392505050565b600081905092915050565b7f48692c2000000000000000000000000000000000000000000000000000000000600082015250565b60006107f66004836107b5565b9150610801826107c0565b600482019050919050565b60008154610819816104bf565b61082381866107b5565b9450600182166000811461083e576001811461085357610886565b60ff1983168652811515820286019350610886565b61085c856104f0565b60005b8381101561087e5781548189015260018201915060208101905061085f565b838801955050505b50505092915050565b600061089a826107e9565b91506108a6828461080c565b91508190509291505056fea2646970667358221220032ec0bb4fd4c6c1001ad928d14caaf6edeb2dfb94f8937091d92a7004e95ec864736f6c63430008150033",
  "immutableReferences": {},
  "source": "// SPDX-License-Identifier: MIT \npragma solidity ^0.8.17;\n\ncontract HelloWorld {\n    string public yourName = \"Unknown\";\n\n    event NameUpdated(string oldName, string newName);\n\n    constructor() {\n        yourName = \"Unknown\";\n    }\n\n    function getMessage() public view returns (string memory) {\n        return string(abi.encodePacked(\"Hi, \", yourName));\n    }\n\n    function setName(string memory newName) public {\n        string memory oldName = yourName;\n        yourName = newName;\n        emit NameUpdated(oldName, newName);\n    }\n}",
  "sourcePath": "C:\\Users\\Admin\\Desktop\\smartContracts-Blockhain-main\\smartContracts-Blockhain-main\\contracts\\HelloWorld.sol",
  "compiler": {
    "name": "solc",
    "version": "0.8.21+commit.d9974bed.Emscripten.clang"
  },
  "schemaVersion": "3.4.16",
  "updatedAt": "2025-12-12T14:49:00.434Z",
  "networkType": "ethereum",
  "devdoc": {
    "kind": "dev",
    "methods": {},
    "version": 1
  },
  "userdoc": {
    "kind": "user",
    "methods": {},
    "version": 1
  }
}